:020000040800F2
:1000000090060020CD0100088D050008A30300081C
:100010008905000887020008310B00080000000075
:100020000000000000000000000000002D07000894
:100030008B020008000000001506000841080008B7
:10004000E7010008E7010008E7010008E7010008F0
:10005000E7010008E7010008E7010008E7010008E0
:10006000E7010008E7010008E7010008E7010008D0
:10007000E7010008E7010008E7010008E7010008C0
:10008000E7010008E7010008E7010008E7010008B0
:10009000E7010008E7010008E7010008E7010008A0
:1000A000E7010008E7010008E7010008E701000890
:1000B000E7010008E7010008E7010008E701000880
:1000C000E7010008E7010008E7010008E701000870
:1000D000E7010008A5080008E7010008E508000896
:1000E000E7010008E7010008E7010008E701000850
:1000F000E7010008E7010008E7010008E701000840
:10010000E7010008E7010008E7010008E70100082F
:10011000E7010008E7010008E7010008E70100081F
:10012000E7010008E7010008E7010008E70100080F
:1001300000F002F800F03AF80AA090E8000C8244BF
:100140008344AAF10107DA4501D100F02FF8AFF29C
:10015000090EBAE80F0013F0010F18BFFB1A43F0A5
:1001600001031847B80C0000D80C0000103A24BF57
:1001700078C878C1FAD8520724BF30C830C144BF0C
:1001800004680C607047000000230024002500264E
:10019000103A28BF78C1FBD8520728BF30C148BFEA
:1001A0000B6070471FB51FBD10B510BD00F031F8D2
:1001B0001146FFF7F7FF00F005FD00F04FF803B41C
:1001C000FFF7F2FF03BC00F057F800000948804732
:1001D00009480047FEE7FEE7FEE7FEE7FEE7FEE729
:1001E000FEE7FEE7FEE7FEE704480549054A064B41
:1001F0007047000045080008310100089000002009
:100200009006002090020020900200207047704766
:100210007047754600F02CF8AE4605006946534617
:1002200020F00700854618B020B5FFF7DDFFBDE8D8
:1002300020404FF000064FF000074FF000084FF04D
:10024000000B21F00701AC46ACE8C009ACE8C009DE
:10025000ACE8C009ACE8C0098D46704710B504464B
:10026000AFF300802046BDE81040FFF7A8BF0000B4
:10027000004870472C00002001491820ABBEFEE763
:1002800026000200704700BFFEE770472DE9F041ED
:10029000024600250026002000230024002791F8B4
:1002A00003C00CF00F0591F803C00CF0100CBCF16A
:1002B000000F03D091F802C04CEA050591F800C088
:1002C000BCF1000F31D0146800202BE04FF0010C7E
:1002D0000CFA00F3B1F800C00CEA03069E4220D1EC
:1002E00083004FF00F0C0CFA03F7BC4305FA03FC34
:1002F0004CEA040491F803C0BCF1280F06D14FF07A
:10030000010C0CFA00FCC2F814C00AE091F803C01A
:10031000BCF1480F05D14FF0010C0CFA00FCC2F8FB
:1003200010C0401C0828D1D31460B1F800C0BCF143
:10033000FF0F34DD546800202EE000F1080C4FF070
:10034000010808FA0CF3B1F800C00CEA03069E425B
:1003500021D183004FF00F0C0CFA03F7BC4305FAD0
:1003600003FC4CEA040491F803C0BCF1280F05D14A
:1003700000F1080C08FA0CF8C2F8148091F803C0D8
:10038000BCF1480F07D100F1080C4FF0010808FA42
:100390000CF8C2F81080401C0828CED35460BDE889
:1003A000F08100BFFEE710B500F07EFC00F0DAFC43
:1003B00010BD000070B5002400256D48806940F034
:1003C00008006B4988616B48006800F07F4069490C
:1003D000086008460068684908436649086065483F
:1003E0000830006800206349083108600120634933
:1003F00008606349C1F8B001604908310860002015
:100400005E498C390860091D08605D49C1F8280102
:100410005A488C380068012809D058488838006844
:10042000012804D0554884380068012819D10A20D1
:1004300000F0A2FB51488C380068012801D101244A
:100440000FE04E4888380068012801D1022408E0F6
:100450004A4884380068012801D1032401E00020C3
:1004600070BD4448006800F07F404249086008467B
:100470000068444908433F4908603E480830006826
:1004800000203C490831086001203C490C390860D3
:100490003B49C1F8A4013949091F086000203749C8
:1004A00080390860091D08603549C1F834013348B6
:1004B00080380068012809D030487C38006801285D
:1004C00004D02E4878380068012819D10A2000F09D
:1004D00053FB2A4880380068012801D101250FE02C
:1004E00026487C380068012801D1022508E023480D
:1004F00078380068012801D1032501E00020AFE72A
:10050000012D03D1012C01D10720A9E7012D03D131
:10051000022C01D10820A3E7012D03D1032C01D126
:1005200009209DE7022D03D1012C01D1042097E77A
:10053000022D03D1022C01D1052091E7022D03D118
:10054000032C01D106208BE7032D03D1012C01D10F
:10055000012085E7032D03D1022C01D102207FE782
:10056000032D03D1032C01D1032079E7002077E785
:1005700000100240040C014088383300AC81214255
:10058000008021423383880000BFFEE770470000EF
:1005900070B5002100230F22C47804B3154C2468E1
:1005A00004F4E064C4F5E064210AC1F10403CA4024
:1005B000447804FA03F184781440214309010E4C75
:1005C0000678A155047804F01F050124AC40057895
:1005D0006D11AD0005F1E025C5F8004109E0047892
:1005E00004F01F050124AC40044D0678761145F84F
:1005F000264070BD0CED00E000E400E080E100E08A
:1006000002490143024A1160704700000000FA05E8
:100610000CED00E07047000029B1064AD2690243A0
:10062000044BDA6104E0034AD2698243014BDA6188
:10063000704700000010024029B1064A9269024347
:10064000044B9A6104E0034A92698243014B9A6128
:10065000704700000010024030B500210022002445
:1006600000232D4D6D6805F00C0121B1042905D042
:10067000082923D105E0294D056022E0274D0560BA
:100680001FE0254D6D6805F47012234D6D6805F46B
:100690008034022505EB92421CB9214D554305607B
:1006A0000BE01D4D6D6805F400351DB11C4D554323
:1006B000056002E0194D5543056002E0174D0560E5
:1006C00000BF00BF144D6D6805F0F0010909154D1C
:1006D0006B5C0568DD4045600F4D6D6805F4E061B9
:1006E000090A104D6B5C4568DD4085600A4D6D68F8
:1006F00005F46051C90A0B4D6B5C4568DD40C5606F
:10070000054D6D6805F44041890B074D6B5CC5686C
:10071000B5FBF3F5056130BD0010024000127A0010
:1007200000093D001800002028000020704710B587
:1007300000F002F810BD00000CB500200190009000
:100740003348006840F480303149086000BF3048C9
:10075000006800F4003000900198401C019000985F
:1007600018B90198B0F5A06FF1D12948006800F4DC
:10077000003010B10120009001E0002000900098AE
:10078000012843D12348006840F010002149086047
:100790000846006820F0030008600846006840F042
:1007A000020008601A4840681949486008464068D5
:1007B00048600846406840F48060486008464068E9
:1007C00020F47C1048600846406840F4E810486017
:1007D0000846006840F08070086000BF0C48006860
:1007E00000F000700028F9D00948406820F00300AC
:1007F000074948600846406840F00200486000BF72
:100800000348406800F00C000828F9D10CBD000036
:100810000010024000200240042808D14FF0E021DF
:10082000096941F004014FF0E022116107E04FF047
:10083000E021096921F004014FF0E02211617047C5
:100840007047000010B51348006840F001001149DE
:10085000086008464068104908400E49486008464C
:1008600000680E4908400B4908600846006820F4FB
:10087000802008600846406820F4FE0048604FF47D
:100880001F008860FFF753FF4FF0006004490860C5
:1008900010BD0000001002400000FFF8FFFFF6FE50
:1008A00008ED00E010B540F22551074800F055F87A
:1008B00048B1054800F00CF9C4B2612C03D103A182
:1008C000014800F01DF910BD003801405553415258
:1008D00054312053656E642053756363657373668A
:1008E000756C0A0010B540F22551074800F035F844
:1008F00048B1054800F0ECF8C4B2622C03D103A162
:10090000084800F0FDF810BD004800405553415222
:1009100054332053656E6420537563636573736647
:10092000756C0A000038014021B1828942F40052FE
:10093000828104E082894DF6FF731A4082817047FC
:1009400002460020B1F5007F00D100BF13880B40A4
:100950000BB1012000E00020704770B50246002472
:1009600000230025002040F66A16B14200D100BFE6
:10097000C1F3421501F01F03012606FA03F3012D0E
:1009800002D19689334006E0022D02D1168A334007
:1009900001E0968A33400C12012606FA04F4168808
:1009A000344013B10CB1012000E0002070BDF0B55F
:1009B0000346002400260025002040F66A17B942AD
:1009C00000D100BF1846C1F3421401F01F060127F1
:1009D00007FA06F5012C01D10C3004E0022C01D1FC
:1009E000103000E014301AB107682F43076002E0AE
:1009F0000768AF430760F0BD2DE9F04786B00546B4
:100A00000E460024A24600BFA1460027B08900B1CF
:100A100000BF2F462C8A4CF6FF700440F088044338
:100A20002C82AC894EF6F3100440B088318908431B
:100A3000718908430443AC81AC8A4FF6FF400440FF
:100A4000B0890443AC8201A8FFF706FE1F48874225
:100A500002D1DDF810A001E0DDF80CA0A88900F4B7
:100A6000004040B10AEBCA0000EB0A1031684900AF
:100A7000B0FBF1F807E00AEBCA0000EB0A1031689E
:100A80008900B0FBF1F86420B8FBF0F00401200904
:100A9000642101FB1089A88900F4004040B1322094
:100AA00000EBC900B0FBF1F000F00700044308E0E0
:100AB000322000EB09106421B0FBF1F000F00F00D0
:100AC00004432C8106B0BDE8F087000000380140E7
:100AD00001468888C0F308007047C1F3080282808D
:100AE000704770B504460D4629462046FFF7F5FFCE
:100AF00000BF80212046FFF723FF0028F9D070BDFA
:100B000070B506460C46002500BF615D3046FFF714
:100B1000E8FF681C85B2605D0028F6D100BF402167
:100B20000248FFF70DFF0028F9D070BD00380140E2
:100B300000BFFEE710B56FF00400FFF76DFE0A4836
:100B400000680A49B0FBF1F00949087008460078CE
:100B500000EB4001C1EBC0104FF6FF7101EAC0008D
:100B60000449088010BD00000000002000127A0037
:100B700014000020160000200146114A12884A4342
:100B80004FF0E0235A6100229A611A46126942F03E
:100B900001021A6100BF4FF0E022106900F001026B
:100BA0001AB100F48032002AF5D04FF0E022126929
:100BB00022F001024FF0E0231A6100229A6170478F
:100BC0001600002008B5FFF7EEFBFFF7B3FF56E075
:100BD000FFF7F0FB00909DF800000A284ED2DFE8F6
:100BE00000F04D050D151D252D353D4524A1254849
:100BF000FFF786FFFA20FFF7BFFF3FE022A1214861
:100C0000FFF77EFFFA20FFF7B7FF37E01FA11D486F
:100C1000FFF776FFFA20FFF7AFFF2FE01CA119487E
:100C2000FFF76EFFFA20FFF7A7FF27E019A115488D
:100C3000FFF766FFFA20FFF79FFF1FE016A111489C
:100C4000FFF75EFFFA20FFF797FF17E013A10D48AB
:100C5000FFF756FFFA20FFF78FFF0FE010A10948BA
:100C6000FFF74EFFFA20FFF787FF07E00DA10548C9
:100C7000FFF746FFFA20FFF77FFF00BF00BFA7E79F
:100C80003100000000380140320000003300000055
:100C9000340000003500000036000000370000007E
:100CA000380000003000000000B587B04FF4A060AD
:100CB000FFF7A6FC01210420FFF7BEFC0121084636
:100CC000FFF7BAFC01218803FFF7B6FC18208DF866
:100CD0001B004FF40070ADF8180003208DF81A00C7
:100CE00006A91E48FFF7D2FA04208DF81B00000267
:100CF000ADF8180006A91948FFF7C8FA012240F21A
:100D000025511748FFF753FE4FF4E13002900020C1
:100D1000ADF814000C20ADF812000020ADF8100062
:100D2000ADF80E00ADF80C0002A90D48FFF764FE07
:100D300001210B48FFF7F8FD25208DF80400012064
:100D40008DF8070000208DF8050001208DF80600C1
:100D500001A8FFF71DFC07B000BD0000000801401E
:100D60000038014000B587B04FF4A060FFF748FCA1
:100D700001210820FFF760FC01210846FFF75CFC19
:100D800001218804FFF748FC18208DF81B004FF460
:100D90008060ADF8180001208DF81A0006A91D48E2
:100DA000FFF774FA04208DF81B004002ADF818001C
:100DB00006A91848FFF76AFA012240F225511648A1
:100DC000FFF7F5FD4FF4165002900020ADF8140027
:100DD0000C20ADF812000020ADF81000ADF80E00A8
:100DE000ADF80C0002A90C48FFF706FE01210A48E5
:100DF000FFF79AFD27208DF8040001208DF80700E9
:100E00008DF8050003208DF8060001A8FFF7C0FB50
:100E100007B000BD000C0140004800403C0E000837
:100E2000000000202C0000006C010008680E000883
:100E30002C000020640600008801000800A24A047B
:100E4000000000000000000001020304060708097A
:100E5000000000000000000001020304010203047E
:080E6000060708090204060858
:04000005080001CD21
:00000001FF
